{
  "_format": "hh-sol-artifact-1",
  "contractName": "OTCIndex",
  "sourceName": "contracts/Connectors/OTCIndex/OTCIndex.sol",
  "abi": [
    {
      "inputs": [
        {
          "internalType": "address",
          "name": "_otcCustodyAddress",
          "type": "address"
        },
        {
          "internalType": "string",
          "name": "_name",
          "type": "string"
        },
        {
          "internalType": "string",
          "name": "_symbol",
          "type": "string"
        },
        {
          "internalType": "bytes32",
          "name": "_custodyId",
          "type": "bytes32"
        },
        {
          "internalType": "address",
          "name": "_collateralToken",
          "type": "address"
        },
        {
          "internalType": "uint256",
          "name": "_collateralTokenPrecision",
          "type": "uint256"
        },
        {
          "internalType": "uint256",
          "name": "_managementFee",
          "type": "uint256"
        },
        {
          "internalType": "uint256",
          "name": "_performanceFee",
          "type": "uint256"
        },
        {
          "internalType": "uint256",
          "name": "_maxMintPerBlock",
          "type": "uint256"
        },
        {
          "internalType": "uint256",
          "name": "_maxRedeemPerBlock",
          "type": "uint256"
        },
        {
          "internalType": "uint256",
          "name": "_voteThreshold",
          "type": "uint256"
        },
        {
          "internalType": "uint256",
          "name": "_votePeriod",
          "type": "uint256"
        },
        {
          "internalType": "uint256",
          "name": "_price",
          "type": "uint256"
        }
      ],
      "stateMutability": "nonpayable",
      "type": "constructor"
    },
    {
      "inputs": [],
      "name": "AlreadyVoted",
      "type": "error"
    },
    {
      "inputs": [],
      "name": "CheckpointUnorderedInsertion",
      "type": "error"
    },
    {
      "inputs": [],
      "name": "ECDSAInvalidSignature",
      "type": "error"
    },
    {
      "inputs": [
        {
          "internalType": "uint256",
          "name": "length",
          "type": "uint256"
        }
      ],
      "name": "ECDSAInvalidSignatureLength",
      "type": "error"
    },
    {
      "inputs": [
        {
          "internalType": "bytes32",
          "name": "s",
          "type": "bytes32"
        }
      ],
      "name": "ECDSAInvalidSignatureS",
      "type": "error"
    },
    {
      "inputs": [
        {
          "internalType": "uint256",
          "name": "increasedSupply",
          "type": "uint256"
        },
        {
          "internalType": "uint256",
          "name": "cap",
          "type": "uint256"
        }
      ],
      "name": "ERC20ExceededSafeSupply",
      "type": "error"
    },
    {
      "inputs": [
        {
          "internalType": "address",
          "name": "spender",
          "type": "address"
        },
        {
          "internalType": "uint256",
          "name": "allowance",
          "type": "uint256"
        },
        {
          "internalType": "uint256",
          "name": "needed",
          "type": "uint256"
        }
      ],
      "name": "ERC20InsufficientAllowance",
      "type": "error"
    },
    {
      "inputs": [
        {
          "internalType": "address",
          "name": "sender",
          "type": "address"
        },
        {
          "internalType": "uint256",
          "name": "balance",
          "type": "uint256"
        },
        {
          "internalType": "uint256",
          "name": "needed",
          "type": "uint256"
        }
      ],
      "name": "ERC20InsufficientBalance",
      "type": "error"
    },
    {
      "inputs": [
        {
          "internalType": "address",
          "name": "approver",
          "type": "address"
        }
      ],
      "name": "ERC20InvalidApprover",
      "type": "error"
    },
    {
      "inputs": [
        {
          "internalType": "address",
          "name": "receiver",
          "type": "address"
        }
      ],
      "name": "ERC20InvalidReceiver",
      "type": "error"
    },
    {
      "inputs": [
        {
          "internalType": "address",
          "name": "sender",
          "type": "address"
        }
      ],
      "name": "ERC20InvalidSender",
      "type": "error"
    },
    {
      "inputs": [
        {
          "internalType": "address",
          "name": "spender",
          "type": "address"
        }
      ],
      "name": "ERC20InvalidSpender",
      "type": "error"
    },
    {
      "inputs": [
        {
          "internalType": "uint256",
          "name": "timepoint",
          "type": "uint256"
        },
        {
          "internalType": "uint48",
          "name": "clock",
          "type": "uint48"
        }
      ],
      "name": "ERC5805FutureLookup",
      "type": "error"
    },
    {
      "inputs": [],
      "name": "ERC6372InconsistentClock",
      "type": "error"
    },
    {
      "inputs": [
        {
          "internalType": "address",
          "name": "account",
          "type": "address"
        },
        {
          "internalType": "uint256",
          "name": "currentNonce",
          "type": "uint256"
        }
      ],
      "name": "InvalidAccountNonce",
      "type": "error"
    },
    {
      "inputs": [],
      "name": "InvalidShortString",
      "type": "error"
    },
    {
      "inputs": [],
      "name": "MaxMintPerBlockExceeded",
      "type": "error"
    },
    {
      "inputs": [],
      "name": "MaxRedeemPerBlockExceeded",
      "type": "error"
    },
    {
      "inputs": [],
      "name": "NoVotingPower",
      "type": "error"
    },
    {
      "inputs": [],
      "name": "OnlyOTCCustody",
      "type": "error"
    },
    {
      "inputs": [
        {
          "internalType": "uint8",
          "name": "bits",
          "type": "uint8"
        },
        {
          "internalType": "uint256",
          "name": "value",
          "type": "uint256"
        }
      ],
      "name": "SafeCastOverflowedUintDowncast",
      "type": "error"
    },
    {
      "inputs": [
        {
          "internalType": "address",
          "name": "token",
          "type": "address"
        }
      ],
      "name": "SafeERC20FailedOperation",
      "type": "error"
    },
    {
      "inputs": [
        {
          "internalType": "string",
          "name": "str",
          "type": "string"
        }
      ],
      "name": "StringTooLong",
      "type": "error"
    },
    {
      "inputs": [],
      "name": "ThresholdNotMet",
      "type": "error"
    },
    {
      "inputs": [],
      "name": "VoteAlreadyInitialized",
      "type": "error"
    },
    {
      "inputs": [],
      "name": "VoteExpired",
      "type": "error"
    },
    {
      "inputs": [],
      "name": "VoteNotInitialized",
      "type": "error"
    },
    {
      "inputs": [
        {
          "internalType": "uint256",
          "name": "expiry",
          "type": "uint256"
        }
      ],
      "name": "VotesExpiredSignature",
      "type": "error"
    },
    {
      "anonymous": false,
      "inputs": [
        {
          "indexed": true,
          "internalType": "address",
          "name": "owner",
          "type": "address"
        },
        {
          "indexed": true,
          "internalType": "address",
          "name": "spender",
          "type": "address"
        },
        {
          "indexed": false,
          "internalType": "uint256",
          "name": "value",
          "type": "uint256"
        }
      ],
      "name": "Approval",
      "type": "event"
    },
    {
      "anonymous": false,
      "inputs": [
        {
          "indexed": false,
          "internalType": "uint256",
          "name": "amount",
          "type": "uint256"
        },
        {
          "indexed": true,
          "internalType": "address",
          "name": "user",
          "type": "address"
        },
        {
          "indexed": false,
          "internalType": "uint8",
          "name": "blockchainId",
          "type": "uint8"
        }
      ],
      "name": "BridgeToken",
      "type": "event"
    },
    {
      "anonymous": false,
      "inputs": [
        {
          "indexed": false,
          "internalType": "uint256",
          "name": "amount",
          "type": "uint256"
        },
        {
          "indexed": false,
          "internalType": "address",
          "name": "to",
          "type": "address"
        },
        {
          "indexed": false,
          "internalType": "uint256",
          "name": "seqNumNewOrderSingle",
          "type": "uint256"
        }
      ],
      "name": "Burn",
      "type": "event"
    },
    {
      "anonymous": false,
      "inputs": [
        {
          "indexed": false,
          "internalType": "uint256",
          "name": "amount",
          "type": "uint256"
        },
        {
          "indexed": false,
          "internalType": "address",
          "name": "to",
          "type": "address"
        },
        {
          "indexed": false,
          "internalType": "uint256",
          "name": "seqNumCancel",
          "type": "uint256"
        }
      ],
      "name": "BurnBridge",
      "type": "event"
    },
    {
      "anonymous": false,
      "inputs": [
        {
          "indexed": false,
          "internalType": "uint256",
          "name": "timestamp",
          "type": "uint256"
        },
        {
          "indexed": false,
          "internalType": "bytes",
          "name": "weights",
          "type": "bytes"
        },
        {
          "indexed": false,
          "internalType": "uint256",
          "name": "price",
          "type": "uint256"
        }
      ],
      "name": "CuratorUpdate",
      "type": "event"
    },
    {
      "anonymous": false,
      "inputs": [
        {
          "indexed": true,
          "internalType": "address",
          "name": "delegator",
          "type": "address"
        },
        {
          "indexed": true,
          "internalType": "address",
          "name": "fromDelegate",
          "type": "address"
        },
        {
          "indexed": true,
          "internalType": "address",
          "name": "toDelegate",
          "type": "address"
        }
      ],
      "name": "DelegateChanged",
      "type": "event"
    },
    {
      "anonymous": false,
      "inputs": [
        {
          "indexed": true,
          "internalType": "address",
          "name": "delegate",
          "type": "address"
        },
        {
          "indexed": false,
          "internalType": "uint256",
          "name": "previousVotes",
          "type": "uint256"
        },
        {
          "indexed": false,
          "internalType": "uint256",
          "name": "newVotes",
          "type": "uint256"
        }
      ],
      "name": "DelegateVotesChanged",
      "type": "event"
    },
    {
      "anonymous": false,
      "inputs": [
        {
          "indexed": false,
          "internalType": "uint256",
          "name": "amount",
          "type": "uint256"
        },
        {
          "indexed": false,
          "internalType": "address",
          "name": "from",
          "type": "address"
        },
        {
          "indexed": false,
          "internalType": "uint256",
          "name": "seqNumNewOrderSingle",
          "type": "uint256"
        },
        {
          "indexed": false,
          "internalType": "address",
          "name": "affiliate1",
          "type": "address"
        },
        {
          "indexed": false,
          "internalType": "address",
          "name": "affiliate2",
          "type": "address"
        }
      ],
      "name": "Deposit",
      "type": "event"
    },
    {
      "anonymous": false,
      "inputs": [],
      "name": "EIP712DomainChanged",
      "type": "event"
    },
    {
      "anonymous": false,
      "inputs": [
        {
          "indexed": false,
          "internalType": "uint256",
          "name": "lastPrice",
          "type": "uint256"
        }
      ],
      "name": "LastPriceUpdated",
      "type": "event"
    },
    {
      "anonymous": false,
      "inputs": [
        {
          "indexed": false,
          "internalType": "uint256",
          "name": "amount",
          "type": "uint256"
        },
        {
          "indexed": true,
          "internalType": "address",
          "name": "user",
          "type": "address"
        },
        {
          "indexed": false,
          "internalType": "uint256",
          "name": "seqNumNewOrderSingle",
          "type": "uint256"
        }
      ],
      "name": "LockToken",
      "type": "event"
    },
    {
      "anonymous": false,
      "inputs": [
        {
          "indexed": false,
          "internalType": "uint256",
          "name": "oldMaxMintPerBlock",
          "type": "uint256"
        },
        {
          "indexed": false,
          "internalType": "uint256",
          "name": "maxMintPerBlock",
          "type": "uint256"
        }
      ],
      "name": "MaxMintPerBlockChanged",
      "type": "event"
    },
    {
      "anonymous": false,
      "inputs": [
        {
          "indexed": false,
          "internalType": "uint256",
          "name": "oldMaxRedeemPerBlock",
          "type": "uint256"
        },
        {
          "indexed": false,
          "internalType": "uint256",
          "name": "maxRedeemPerBlock",
          "type": "uint256"
        }
      ],
      "name": "MaxRedeemPerBlockChanged",
      "type": "event"
    },
    {
      "anonymous": false,
      "inputs": [
        {
          "indexed": false,
          "internalType": "uint256",
          "name": "amount",
          "type": "uint256"
        },
        {
          "indexed": false,
          "internalType": "address",
          "name": "to",
          "type": "address"
        },
        {
          "indexed": false,
          "internalType": "uint256",
          "name": "seqNumExecutionReport",
          "type": "uint256"
        }
      ],
      "name": "Mint",
      "type": "event"
    },
    {
      "anonymous": false,
      "inputs": [
        {
          "indexed": false,
          "internalType": "uint256",
          "name": "timestamp",
          "type": "uint256"
        },
        {
          "indexed": false,
          "internalType": "bytes",
          "name": "weights",
          "type": "bytes"
        },
        {
          "indexed": false,
          "internalType": "uint256",
          "name": "price",
          "type": "uint256"
        }
      ],
      "name": "SolverUpdate",
      "type": "event"
    },
    {
      "anonymous": false,
      "inputs": [
        {
          "indexed": true,
          "internalType": "address",
          "name": "from",
          "type": "address"
        },
        {
          "indexed": true,
          "internalType": "address",
          "name": "to",
          "type": "address"
        },
        {
          "indexed": false,
          "internalType": "uint256",
          "name": "value",
          "type": "uint256"
        }
      ],
      "name": "Transfer",
      "type": "event"
    },
    {
      "anonymous": false,
      "inputs": [
        {
          "indexed": false,
          "internalType": "uint256",
          "name": "amount",
          "type": "uint256"
        },
        {
          "indexed": true,
          "internalType": "address",
          "name": "user",
          "type": "address"
        },
        {
          "indexed": false,
          "internalType": "uint256",
          "name": "seqNumCancel",
          "type": "uint256"
        }
      ],
      "name": "UnlockToken",
      "type": "event"
    },
    {
      "anonymous": false,
      "inputs": [
        {
          "indexed": false,
          "internalType": "uint256",
          "name": "newVoteThreshold",
          "type": "uint256"
        },
        {
          "indexed": false,
          "internalType": "uint256",
          "name": "newVotePeriod",
          "type": "uint256"
        }
      ],
      "name": "VoteParametersUpdated",
      "type": "event"
    },
    {
      "anonymous": false,
      "inputs": [
        {
          "indexed": false,
          "internalType": "uint256",
          "name": "amount",
          "type": "uint256"
        },
        {
          "indexed": false,
          "internalType": "address",
          "name": "to",
          "type": "address"
        },
        {
          "indexed": false,
          "internalType": "bytes",
          "name": "executionReport",
          "type": "bytes"
        }
      ],
      "name": "Withdraw",
      "type": "event"
    },
    {
      "inputs": [],
      "name": "CLOCK_MODE",
      "outputs": [
        {
          "internalType": "string",
          "name": "",
          "type": "string"
        }
      ],
      "stateMutability": "view",
      "type": "function"
    },
    {
      "inputs": [
        {
          "internalType": "address",
          "name": "owner",
          "type": "address"
        },
        {
          "internalType": "address",
          "name": "spender",
          "type": "address"
        }
      ],
      "name": "allowance",
      "outputs": [
        {
          "internalType": "uint256",
          "name": "",
          "type": "uint256"
        }
      ],
      "stateMutability": "view",
      "type": "function"
    },
    {
      "inputs": [
        {
          "internalType": "address",
          "name": "spender",
          "type": "address"
        },
        {
          "internalType": "uint256",
          "name": "value",
          "type": "uint256"
        }
      ],
      "name": "approve",
      "outputs": [
        {
          "internalType": "bool",
          "name": "",
          "type": "bool"
        }
      ],
      "stateMutability": "nonpayable",
      "type": "function"
    },
    {
      "inputs": [
        {
          "internalType": "address",
          "name": "account",
          "type": "address"
        }
      ],
      "name": "balanceOf",
      "outputs": [
        {
          "internalType": "uint256",
          "name": "",
          "type": "uint256"
        }
      ],
      "stateMutability": "view",
      "type": "function"
    },
    {
      "inputs": [
        {
          "internalType": "uint256",
          "name": "amount",
          "type": "uint256"
        },
        {
          "internalType": "uint8",
          "name": "blockchainId",
          "type": "uint8"
        }
      ],
      "name": "bridgeToken",
      "outputs": [],
      "stateMutability": "nonpayable",
      "type": "function"
    },
    {
      "inputs": [
        {
          "internalType": "uint256",
          "name": "amount",
          "type": "uint256"
        },
        {
          "internalType": "address",
          "name": "target",
          "type": "address"
        },
        {
          "internalType": "uint256",
          "name": "seqNumNewOrderSingle",
          "type": "uint256"
        }
      ],
      "name": "burn",
      "outputs": [],
      "stateMutability": "nonpayable",
      "type": "function"
    },
    {
      "inputs": [
        {
          "internalType": "uint256",
          "name": "amount",
          "type": "uint256"
        },
        {
          "internalType": "address",
          "name": "target",
          "type": "address"
        },
        {
          "internalType": "uint256",
          "name": "seqNumCancel",
          "type": "uint256"
        }
      ],
      "name": "burnBridge",
      "outputs": [],
      "stateMutability": "nonpayable",
      "type": "function"
    },
    {
      "inputs": [
        {
          "internalType": "address",
          "name": "account",
          "type": "address"
        },
        {
          "internalType": "uint32",
          "name": "pos",
          "type": "uint32"
        }
      ],
      "name": "checkpoints",
      "outputs": [
        {
          "components": [
            {
              "internalType": "uint48",
              "name": "_key",
              "type": "uint48"
            },
            {
              "internalType": "uint208",
              "name": "_value",
              "type": "uint208"
            }
          ],
          "internalType": "struct Checkpoints.Checkpoint208",
          "name": "",
          "type": "tuple"
        }
      ],
      "stateMutability": "view",
      "type": "function"
    },
    {
      "inputs": [],
      "name": "clock",
      "outputs": [
        {
          "internalType": "uint48",
          "name": "",
          "type": "uint48"
        }
      ],
      "stateMutability": "view",
      "type": "function"
    },
    {
      "inputs": [],
      "name": "collateralToken",
      "outputs": [
        {
          "internalType": "address",
          "name": "",
          "type": "address"
        }
      ],
      "stateMutability": "view",
      "type": "function"
    },
    {
      "inputs": [],
      "name": "collateralTokenPrecision",
      "outputs": [
        {
          "internalType": "uint256",
          "name": "",
          "type": "uint256"
        }
      ],
      "stateMutability": "view",
      "type": "function"
    },
    {
      "inputs": [
        {
          "internalType": "uint256",
          "name": "",
          "type": "uint256"
        }
      ],
      "name": "curatorPrice",
      "outputs": [
        {
          "internalType": "uint256",
          "name": "",
          "type": "uint256"
        }
      ],
      "stateMutability": "view",
      "type": "function"
    },
    {
      "inputs": [
        {
          "internalType": "uint256",
          "name": "_timestamp",
          "type": "uint256"
        },
        {
          "internalType": "bytes",
          "name": "_weights",
          "type": "bytes"
        },
        {
          "internalType": "uint256",
          "name": "_price",
          "type": "uint256"
        }
      ],
      "name": "curatorUpdate",
      "outputs": [],
      "stateMutability": "nonpayable",
      "type": "function"
    },
    {
      "inputs": [
        {
          "internalType": "uint256",
          "name": "",
          "type": "uint256"
        }
      ],
      "name": "curatorWeights",
      "outputs": [
        {
          "internalType": "bytes",
          "name": "",
          "type": "bytes"
        }
      ],
      "stateMutability": "view",
      "type": "function"
    },
    {
      "inputs": [],
      "name": "custodyId",
      "outputs": [
        {
          "internalType": "bytes32",
          "name": "",
          "type": "bytes32"
        }
      ],
      "stateMutability": "view",
      "type": "function"
    },
    {
      "inputs": [],
      "name": "decimals",
      "outputs": [
        {
          "internalType": "uint8",
          "name": "",
          "type": "uint8"
        }
      ],
      "stateMutability": "view",
      "type": "function"
    },
    {
      "inputs": [
        {
          "internalType": "address",
          "name": "delegateTo",
          "type": "address"
        }
      ],
      "name": "delegate",
      "outputs": [],
      "stateMutability": "nonpayable",
      "type": "function"
    },
    {
      "inputs": [
        {
          "internalType": "address",
          "name": "delegatee",
          "type": "address"
        },
        {
          "internalType": "uint256",
          "name": "nonce",
          "type": "uint256"
        },
        {
          "internalType": "uint256",
          "name": "expiry",
          "type": "uint256"
        },
        {
          "internalType": "uint8",
          "name": "v",
          "type": "uint8"
        },
        {
          "internalType": "bytes32",
          "name": "r",
          "type": "bytes32"
        },
        {
          "internalType": "bytes32",
          "name": "s",
          "type": "bytes32"
        }
      ],
      "name": "delegateBySig",
      "outputs": [],
      "stateMutability": "nonpayable",
      "type": "function"
    },
    {
      "inputs": [
        {
          "internalType": "address",
          "name": "",
          "type": "address"
        }
      ],
      "name": "delegatedVoter",
      "outputs": [
        {
          "internalType": "address",
          "name": "",
          "type": "address"
        }
      ],
      "stateMutability": "view",
      "type": "function"
    },
    {
      "inputs": [
        {
          "internalType": "address",
          "name": "account",
          "type": "address"
        }
      ],
      "name": "delegates",
      "outputs": [
        {
          "internalType": "address",
          "name": "",
          "type": "address"
        }
      ],
      "stateMutability": "view",
      "type": "function"
    },
    {
      "inputs": [
        {
          "internalType": "uint256",
          "name": "amount",
          "type": "uint256"
        },
        {
          "internalType": "uint256",
          "name": "seqNumNewOrderSingle",
          "type": "uint256"
        },
        {
          "internalType": "address",
          "name": "affiliate1",
          "type": "address"
        },
        {
          "internalType": "address",
          "name": "affiliate2",
          "type": "address"
        }
      ],
      "name": "deposit",
      "outputs": [],
      "stateMutability": "nonpayable",
      "type": "function"
    },
    {
      "inputs": [],
      "name": "eip712Domain",
      "outputs": [
        {
          "internalType": "bytes1",
          "name": "fields",
          "type": "bytes1"
        },
        {
          "internalType": "string",
          "name": "name",
          "type": "string"
        },
        {
          "internalType": "string",
          "name": "version",
          "type": "string"
        },
        {
          "internalType": "uint256",
          "name": "chainId",
          "type": "uint256"
        },
        {
          "internalType": "address",
          "name": "verifyingContract",
          "type": "address"
        },
        {
          "internalType": "bytes32",
          "name": "salt",
          "type": "bytes32"
        },
        {
          "internalType": "uint256[]",
          "name": "extensions",
          "type": "uint256[]"
        }
      ],
      "stateMutability": "view",
      "type": "function"
    },
    {
      "inputs": [
        {
          "internalType": "bytes32",
          "name": "",
          "type": "bytes32"
        }
      ],
      "name": "firstVoteTimestamp",
      "outputs": [
        {
          "internalType": "uint256",
          "name": "",
          "type": "uint256"
        }
      ],
      "stateMutability": "view",
      "type": "function"
    },
    {
      "inputs": [],
      "name": "getCollateralToken",
      "outputs": [
        {
          "internalType": "address",
          "name": "",
          "type": "address"
        }
      ],
      "stateMutability": "view",
      "type": "function"
    },
    {
      "inputs": [],
      "name": "getCollateralTokenPrecision",
      "outputs": [
        {
          "internalType": "uint256",
          "name": "",
          "type": "uint256"
        }
      ],
      "stateMutability": "view",
      "type": "function"
    },
    {
      "inputs": [
        {
          "internalType": "address",
          "name": "user",
          "type": "address"
        }
      ],
      "name": "getDelegatedVoter",
      "outputs": [
        {
          "internalType": "address",
          "name": "",
          "type": "address"
        }
      ],
      "stateMutability": "view",
      "type": "function"
    },
    {
      "inputs": [],
      "name": "getFees",
      "outputs": [
        {
          "internalType": "uint256",
          "name": "_managementFee",
          "type": "uint256"
        },
        {
          "internalType": "uint256",
          "name": "_performanceFee",
          "type": "uint256"
        }
      ],
      "stateMutability": "view",
      "type": "function"
    },
    {
      "inputs": [],
      "name": "getLastPrice",
      "outputs": [
        {
          "internalType": "uint256",
          "name": "",
          "type": "uint256"
        }
      ],
      "stateMutability": "view",
      "type": "function"
    },
    {
      "inputs": [],
      "name": "getLimits",
      "outputs": [
        {
          "internalType": "uint256",
          "name": "_maxMint",
          "type": "uint256"
        },
        {
          "internalType": "uint256",
          "name": "_maxRedeem",
          "type": "uint256"
        }
      ],
      "stateMutability": "view",
      "type": "function"
    },
    {
      "inputs": [
        {
          "internalType": "address",
          "name": "user",
          "type": "address"
        }
      ],
      "name": "getLockedAmount",
      "outputs": [
        {
          "internalType": "uint256",
          "name": "",
          "type": "uint256"
        }
      ],
      "stateMutability": "view",
      "type": "function"
    },
    {
      "inputs": [
        {
          "internalType": "uint256",
          "name": "blockNumber",
          "type": "uint256"
        }
      ],
      "name": "getMintedRedeemed",
      "outputs": [
        {
          "internalType": "uint256",
          "name": "minted",
          "type": "uint256"
        },
        {
          "internalType": "uint256",
          "name": "redeemed",
          "type": "uint256"
        }
      ],
      "stateMutability": "view",
      "type": "function"
    },
    {
      "inputs": [
        {
          "internalType": "uint256",
          "name": "timepoint",
          "type": "uint256"
        }
      ],
      "name": "getPastTotalSupply",
      "outputs": [
        {
          "internalType": "uint256",
          "name": "",
          "type": "uint256"
        }
      ],
      "stateMutability": "view",
      "type": "function"
    },
    {
      "inputs": [
        {
          "internalType": "address",
          "name": "account",
          "type": "address"
        },
        {
          "internalType": "uint256",
          "name": "timepoint",
          "type": "uint256"
        }
      ],
      "name": "getPastVotes",
      "outputs": [
        {
          "internalType": "uint256",
          "name": "",
          "type": "uint256"
        }
      ],
      "stateMutability": "view",
      "type": "function"
    },
    {
      "inputs": [
        {
          "internalType": "bytes32",
          "name": "voteId",
          "type": "bytes32"
        }
      ],
      "name": "getVoteData",
      "outputs": [
        {
          "internalType": "uint256",
          "name": "snapshot",
          "type": "uint256"
        },
        {
          "internalType": "uint256",
          "name": "voteCount",
          "type": "uint256"
        },
        {
          "internalType": "uint256",
          "name": "firstVoteTime",
          "type": "uint256"
        }
      ],
      "stateMutability": "view",
      "type": "function"
    },
    {
      "inputs": [
        {
          "internalType": "address",
          "name": "account",
          "type": "address"
        }
      ],
      "name": "getVotes",
      "outputs": [
        {
          "internalType": "uint256",
          "name": "",
          "type": "uint256"
        }
      ],
      "stateMutability": "view",
      "type": "function"
    },
    {
      "inputs": [
        {
          "internalType": "uint256",
          "name": "timestamp",
          "type": "uint256"
        }
      ],
      "name": "getWeightsAt",
      "outputs": [
        {
          "internalType": "bytes",
          "name": "curatorW",
          "type": "bytes"
        },
        {
          "internalType": "uint256",
          "name": "curatorP",
          "type": "uint256"
        },
        {
          "internalType": "bytes",
          "name": "solverW",
          "type": "bytes"
        },
        {
          "internalType": "uint256",
          "name": "solverP",
          "type": "uint256"
        }
      ],
      "stateMutability": "view",
      "type": "function"
    },
    {
      "inputs": [
        {
          "internalType": "bytes32",
          "name": "",
          "type": "bytes32"
        },
        {
          "internalType": "address",
          "name": "",
          "type": "address"
        }
      ],
      "name": "hasVoted",
      "outputs": [
        {
          "internalType": "bool",
          "name": "",
          "type": "bool"
        }
      ],
      "stateMutability": "view",
      "type": "function"
    },
    {
      "inputs": [
        {
          "internalType": "bytes32",
          "name": "voteId",
          "type": "bytes32"
        }
      ],
      "name": "initVote",
      "outputs": [],
      "stateMutability": "nonpayable",
      "type": "function"
    },
    {
      "inputs": [],
      "name": "lastPrice",
      "outputs": [
        {
          "internalType": "uint256",
          "name": "",
          "type": "uint256"
        }
      ],
      "stateMutability": "view",
      "type": "function"
    },
    {
      "inputs": [
        {
          "internalType": "uint256",
          "name": "amount",
          "type": "uint256"
        },
        {
          "internalType": "uint256",
          "name": "seqNumNewOrderSingle",
          "type": "uint256"
        }
      ],
      "name": "lockToken",
      "outputs": [],
      "stateMutability": "nonpayable",
      "type": "function"
    },
    {
      "inputs": [
        {
          "internalType": "address",
          "name": "",
          "type": "address"
        }
      ],
      "name": "lockedAmount",
      "outputs": [
        {
          "internalType": "uint256",
          "name": "",
          "type": "uint256"
        }
      ],
      "stateMutability": "view",
      "type": "function"
    },
    {
      "inputs": [],
      "name": "managementFee",
      "outputs": [
        {
          "internalType": "uint256",
          "name": "",
          "type": "uint256"
        }
      ],
      "stateMutability": "view",
      "type": "function"
    },
    {
      "inputs": [],
      "name": "maxMintPerBlock",
      "outputs": [
        {
          "internalType": "uint256",
          "name": "",
          "type": "uint256"
        }
      ],
      "stateMutability": "view",
      "type": "function"
    },
    {
      "inputs": [],
      "name": "maxRedeemPerBlock",
      "outputs": [
        {
          "internalType": "uint256",
          "name": "",
          "type": "uint256"
        }
      ],
      "stateMutability": "view",
      "type": "function"
    },
    {
      "inputs": [
        {
          "internalType": "address",
          "name": "target",
          "type": "address"
        },
        {
          "internalType": "uint256",
          "name": "amount",
          "type": "uint256"
        },
        {
          "internalType": "uint256",
          "name": "seqNumExecutionReport",
          "type": "uint256"
        }
      ],
      "name": "mint",
      "outputs": [],
      "stateMutability": "nonpayable",
      "type": "function"
    },
    {
      "inputs": [
        {
          "internalType": "uint256",
          "name": "",
          "type": "uint256"
        }
      ],
      "name": "mintedPerBlock",
      "outputs": [
        {
          "internalType": "uint256",
          "name": "",
          "type": "uint256"
        }
      ],
      "stateMutability": "view",
      "type": "function"
    },
    {
      "inputs": [],
      "name": "name",
      "outputs": [
        {
          "internalType": "string",
          "name": "",
          "type": "string"
        }
      ],
      "stateMutability": "view",
      "type": "function"
    },
    {
      "inputs": [
        {
          "internalType": "address",
          "name": "owner",
          "type": "address"
        }
      ],
      "name": "nonces",
      "outputs": [
        {
          "internalType": "uint256",
          "name": "",
          "type": "uint256"
        }
      ],
      "stateMutability": "view",
      "type": "function"
    },
    {
      "inputs": [
        {
          "internalType": "address",
          "name": "account",
          "type": "address"
        }
      ],
      "name": "numCheckpoints",
      "outputs": [
        {
          "internalType": "uint32",
          "name": "",
          "type": "uint32"
        }
      ],
      "stateMutability": "view",
      "type": "function"
    },
    {
      "inputs": [],
      "name": "otcCustody",
      "outputs": [
        {
          "internalType": "contract OTCCustody",
          "name": "",
          "type": "address"
        }
      ],
      "stateMutability": "view",
      "type": "function"
    },
    {
      "inputs": [],
      "name": "otcCustodyAddress",
      "outputs": [
        {
          "internalType": "address",
          "name": "",
          "type": "address"
        }
      ],
      "stateMutability": "view",
      "type": "function"
    },
    {
      "inputs": [],
      "name": "performanceFee",
      "outputs": [
        {
          "internalType": "uint256",
          "name": "",
          "type": "uint256"
        }
      ],
      "stateMutability": "view",
      "type": "function"
    },
    {
      "inputs": [
        {
          "internalType": "uint256",
          "name": "",
          "type": "uint256"
        }
      ],
      "name": "redeemedPerBlock",
      "outputs": [
        {
          "internalType": "uint256",
          "name": "",
          "type": "uint256"
        }
      ],
      "stateMutability": "view",
      "type": "function"
    },
    {
      "inputs": [
        {
          "internalType": "uint256",
          "name": "",
          "type": "uint256"
        }
      ],
      "name": "solverPrice",
      "outputs": [
        {
          "internalType": "uint256",
          "name": "",
          "type": "uint256"
        }
      ],
      "stateMutability": "view",
      "type": "function"
    },
    {
      "inputs": [
        {
          "internalType": "uint256",
          "name": "_timestamp",
          "type": "uint256"
        },
        {
          "internalType": "bytes",
          "name": "_weights",
          "type": "bytes"
        },
        {
          "internalType": "uint256",
          "name": "_price",
          "type": "uint256"
        }
      ],
      "name": "solverUpdate",
      "outputs": [],
      "stateMutability": "nonpayable",
      "type": "function"
    },
    {
      "inputs": [
        {
          "internalType": "uint256",
          "name": "",
          "type": "uint256"
        }
      ],
      "name": "solverWeights",
      "outputs": [
        {
          "internalType": "bytes",
          "name": "",
          "type": "bytes"
        }
      ],
      "stateMutability": "view",
      "type": "function"
    },
    {
      "inputs": [],
      "name": "symbol",
      "outputs": [
        {
          "internalType": "string",
          "name": "",
          "type": "string"
        }
      ],
      "stateMutability": "view",
      "type": "function"
    },
    {
      "inputs": [],
      "name": "totalSupply",
      "outputs": [
        {
          "internalType": "uint256",
          "name": "",
          "type": "uint256"
        }
      ],
      "stateMutability": "view",
      "type": "function"
    },
    {
      "inputs": [
        {
          "internalType": "address",
          "name": "to",
          "type": "address"
        },
        {
          "internalType": "uint256",
          "name": "value",
          "type": "uint256"
        }
      ],
      "name": "transfer",
      "outputs": [
        {
          "internalType": "bool",
          "name": "",
          "type": "bool"
        }
      ],
      "stateMutability": "nonpayable",
      "type": "function"
    },
    {
      "inputs": [
        {
          "internalType": "address",
          "name": "from",
          "type": "address"
        },
        {
          "internalType": "address",
          "name": "to",
          "type": "address"
        },
        {
          "internalType": "uint256",
          "name": "value",
          "type": "uint256"
        }
      ],
      "name": "transferFrom",
      "outputs": [
        {
          "internalType": "bool",
          "name": "",
          "type": "bool"
        }
      ],
      "stateMutability": "nonpayable",
      "type": "function"
    },
    {
      "inputs": [
        {
          "internalType": "uint256",
          "name": "amount",
          "type": "uint256"
        },
        {
          "internalType": "address",
          "name": "target",
          "type": "address"
        },
        {
          "internalType": "uint256",
          "name": "seqNumCancel",
          "type": "uint256"
        }
      ],
      "name": "unlockToken",
      "outputs": [],
      "stateMutability": "nonpayable",
      "type": "function"
    },
    {
      "inputs": [
        {
          "internalType": "uint256",
          "name": "_lastPrice",
          "type": "uint256"
        }
      ],
      "name": "updateLastPrice",
      "outputs": [],
      "stateMutability": "nonpayable",
      "type": "function"
    },
    {
      "inputs": [
        {
          "internalType": "uint256",
          "name": "_voteThreshold",
          "type": "uint256"
        },
        {
          "internalType": "uint256",
          "name": "_votePeriod",
          "type": "uint256"
        }
      ],
      "name": "updateVoteParameters",
      "outputs": [],
      "stateMutability": "nonpayable",
      "type": "function"
    },
    {
      "inputs": [
        {
          "internalType": "bytes32",
          "name": "voteId",
          "type": "bytes32"
        },
        {
          "components": [
            {
              "internalType": "bytes32",
              "name": "id",
              "type": "bytes32"
            },
            {
              "internalType": "uint8",
              "name": "state",
              "type": "uint8"
            },
            {
              "internalType": "uint256",
              "name": "timestamp",
              "type": "uint256"
            },
            {
              "components": [
                {
                  "internalType": "uint8",
                  "name": "parity",
                  "type": "uint8"
                },
                {
                  "internalType": "bytes32",
                  "name": "x",
                  "type": "bytes32"
                }
              ],
              "internalType": "struct Schnorr.CAKey",
              "name": "pubKey",
              "type": "tuple"
            },
            {
              "components": [
                {
                  "internalType": "bytes32",
                  "name": "e",
                  "type": "bytes32"
                },
                {
                  "internalType": "bytes32",
                  "name": "s",
                  "type": "bytes32"
                }
              ],
              "internalType": "struct Schnorr.Signature",
              "name": "sig",
              "type": "tuple"
            },
            {
              "internalType": "bytes32[]",
              "name": "merkleProof",
              "type": "bytes32[]"
            }
          ],
          "internalType": "struct OTCCustody.VerificationData",
          "name": "v",
          "type": "tuple"
        }
      ],
      "name": "validateVote",
      "outputs": [],
      "stateMutability": "nonpayable",
      "type": "function"
    },
    {
      "inputs": [
        {
          "internalType": "bytes32",
          "name": "voteId",
          "type": "bytes32"
        }
      ],
      "name": "vote",
      "outputs": [],
      "stateMutability": "nonpayable",
      "type": "function"
    },
    {
      "inputs": [],
      "name": "votePeriod",
      "outputs": [
        {
          "internalType": "uint256",
          "name": "",
          "type": "uint256"
        }
      ],
      "stateMutability": "view",
      "type": "function"
    },
    {
      "inputs": [
        {
          "internalType": "bytes32",
          "name": "",
          "type": "bytes32"
        }
      ],
      "name": "voteSnapshotBlock",
      "outputs": [
        {
          "internalType": "uint256",
          "name": "",
          "type": "uint256"
        }
      ],
      "stateMutability": "view",
      "type": "function"
    },
    {
      "inputs": [],
      "name": "voteThreshold",
      "outputs": [
        {
          "internalType": "uint256",
          "name": "",
          "type": "uint256"
        }
      ],
      "stateMutability": "view",
      "type": "function"
    },
    {
      "inputs": [
        {
          "internalType": "bytes32",
          "name": "",
          "type": "bytes32"
        }
      ],
      "name": "votes",
      "outputs": [
        {
          "internalType": "uint256",
          "name": "",
          "type": "uint256"
        }
      ],
      "stateMutability": "view",
      "type": "function"
    },
    {
      "inputs": [
        {
          "internalType": "uint256",
          "name": "amount",
          "type": "uint256"
        },
        {
          "internalType": "address",
          "name": "to",
          "type": "address"
        },
        {
          "components": [
            {
              "internalType": "bytes32",
              "name": "id",
              "type": "bytes32"
            },
            {
              "internalType": "uint8",
              "name": "state",
              "type": "uint8"
            },
            {
              "internalType": "uint256",
              "name": "timestamp",
              "type": "uint256"
            },
            {
              "components": [
                {
                  "internalType": "uint8",
                  "name": "parity",
                  "type": "uint8"
                },
                {
                  "internalType": "bytes32",
                  "name": "x",
                  "type": "bytes32"
                }
              ],
              "internalType": "struct Schnorr.CAKey",
              "name": "pubKey",
              "type": "tuple"
            },
            {
              "components": [
                {
                  "internalType": "bytes32",
                  "name": "e",
                  "type": "bytes32"
                },
                {
                  "internalType": "bytes32",
                  "name": "s",
                  "type": "bytes32"
                }
              ],
              "internalType": "struct Schnorr.Signature",
              "name": "sig",
              "type": "tuple"
            },
            {
              "internalType": "bytes32[]",
              "name": "merkleProof",
              "type": "bytes32[]"
            }
          ],
          "internalType": "struct OTCCustody.VerificationData",
          "name": "v",
          "type": "tuple"
        },
        {
          "internalType": "bytes",
          "name": "executionReport",
          "type": "bytes"
        }
      ],
      "name": "withdraw",
      "outputs": [],
      "stateMutability": "nonpayable",
      "type": "function"
    }
  ],
  "bytecode": "0x6101e060405234620005c657620045fa803803809162000022826101e0620005cb565b6101e0396101e0016101a06101e0820312620005c657620000456101e0620005ef565b610200519091906001600160401b038111620005c657816200006b916101e00162000629565b6102205190916001600160401b038211620005c6576200008f916101e00162000629565b610240519092620000a2610260620005ef565b610280516102a0516102c0516102e051610300516103205161034051610360516101a05260408051919b929a9399949895979593929082018083116001600160401b0390911117620003ad576040828101905260018252603160f81b602083015280516001600160401b038111620003ad57600354600181811c91168015620005bb575b60208210146200049b57601f811162000555575b50806020601f8211600114620004cb57600091620004bf575b508160011b916000199060031b1c1916176003555b8c516101c08190526001600160401b0310620003ad57600454600181811c9e91168015620004b1575b60208f10146200049b57601f8e1162000447575b60209d508d601f6101c05111600114620003cf576000916101c051620003c3575b50506101c05160011b906000196101c05160031b1c1916176004555b620001ed8162000684565b61012052620001fc8262000829565b610140528c8151910120908160e0528c81519101209081610100524660a0527f8b73c3c69bb8fe3d512ecc4cf759cc79239f7b179b0ffacaa9a75d522b39400f6040519d8e015260408d015260608c01524660808c01523060a08c015260a08b528a60c081011060018060401b0360c08d011117620003ad5760c08b016040528a5160208c01206080523060c052826101805260018060a01b0380931661016052600b551660018060a01b0319600c541617600c55600d55600e55600f55601955601a556010556011554260005260146020526101a0516040600020556101a05160125560c0613c799182620009818383013960805182820161342f015260a0518282016134ea015281518282016133f9015260e05182820161347e0152610100518282016134a401526101205182820161176601526101405182820161179001526101605182820181816104a70152818161156f015281816124c701526127230152610180518282018181610780015281816108c901528181610fd101528181611169015281816114a801528181611c4601528181611ea6015281816121780152818161232a01526126f4015201f35b634e487b7160e01b600052604160045260246000fd5b015190503880620001c6565b60046000528e6000209160005b6101c051601f191681106200042e57506101c051601f1981161062000411575b50505060016101c051811b01600455620001e2565b015160001960f86101c05160031b161c19169055388080620003fc565b91926020600181928685015181550194019201620003dc565b600460005260206000209d8e601f6101c0510160051c81019060206101c0511062000492575b601f830160051c01811062000484575050620001a5565b600081556001018f6200046d565b90508f6200046d565b634e487b7160e01b600052602260045260246000fd5b607f60209f169e5062000191565b90508201513862000153565b6003600090815292507fc2575a0e9e593c00f959f8c92f12db2869c3395a3b0502d05e2516446f71f85b905b601f19831684106200053c576001935082601f1981161062000522575b5050811b0160035562000168565b84015160001960f88460031b161c19169055388062000514565b84810151825560209384019360019092019101620004f7565b60036000527fc2575a0e9e593c00f959f8c92f12db2869c3395a3b0502d05e2516446f71f85b601f830160051c810160208410620005b3575b601f830160051c82018110620005a65750506200013a565b600081556001016200058e565b50806200058e565b90607f169062000126565b600080fd5b601f909101601f19168101906001600160401b03821190821017620003ad57604052565b51906001600160a01b0382168203620005c657565b60005b838110620006185750506000910152565b818101518382015260200162000607565b81601f82011215620005c65780516001600160401b038111620003ad576040519262000660601f8301601f191660200185620005cb565b81845260208284010111620005c65762000681916020808501910162000604565b90565b8051602091908281101562000704575090601f825111620006c25780825192015190808310620006b357501790565b82600019910360031b1b161790565b604490620006f69260405193849263305a27a960e01b84528060048501528251928391826024870152868601910162000604565b601f01601f19168101030190fd5b6001600160401b038111620003ad576005928354926001938481811c911680156200081e575b838210146200049b57601f8111620007e7575b5081601f84116001146200077d575092829391839260009462000771575b50501b916000199060031b1c191617905560ff90565b0151925038806200075b565b919083601f1981168760005284600020946000905b88838310620007cc5750505010620007b2575b505050811b01905560ff90565b015160001960f88460031b161c19169055388080620007a5565b85870151885590960195948501948793509081019062000792565b8560005284601f846000209201871c820191601f8601881c015b828110620008115750506200073d565b6000815501859062000801565b90607f16906200072a565b805160209081811015620008565750601f825111620006c25780825192015190808310620006b357501790565b906001600160401b038211620003ad57600654926001938481811c9116801562000975575b838210146200049b57601f81116200093b575b5081601f8411600114620008cf5750928293918392600094620008c3575b50501b916000199060031b1c19161760065560ff90565b015192503880620008ac565b919083601f198116600660005284600020946000905b8883831062000920575050501062000906575b505050811b0160065560ff90565b015160001960f88460031b161c19169055388080620008f8565b858701518855909601959485019487935090810190620008e5565b600660005284601f84600020920160051c820191601f860160051c015b828110620009685750506200088e565b6000815501859062000958565b90607f16906200087b56fe6080604052600436101561001257600080fd5b60003560e01c8063053f14da1461033c57806306b790271461045e57806306fdde0314610459578063092fe29414610454578063095ea7b31461044f578063156e29f61461044a57806318160ddd14610445578063215c2b101461044057806323b872dd1461043b5780632b38cd96146104365780632ba32991146104315780632d0b97291461042c578063313ce5671461042757806333f0d406146104225780633a46b1a81461041d5780633c440f341461041857806341339919146104135780634354c5901461040e5780634568763e146104095780634bf5d7e9146104045780634fe437d5146103ff57806355eee2ac14610337578063587cde1e146103fa5780635c19a95c146103f557806364eec176146103f05780636f89e409146103eb5780636fcfff45146103e65780636fe849451461036457806370a08231146103e15780637ecebe00146103dc578063828e774c146103d7578063844452fa146103d257806384715b11146103cd57806384b0196e146103c8578063864a29ba146103c357806387788782146103be5780638b8939e1146103b95780638e539e8c146103b457806391ddadf4146103af578063928907dd146103aa578063929ec5371461038757806395d89b41146103a5578063964236631461035f57806398ca66e7146103a0578063995d73d81461039b5780639ab24eb0146103965780639d1096ad146103915780639eea5f661461038c578063a153e70814610387578063a69beaba14610382578063a6f7f5d61461037d578063a729cec614610378578063a781358714610373578063a9059cbb1461036e578063aadc3b7214610369578063ab2eab6d14610364578063b2016bd41461035f578063b6c780631461035a578063baa3411014610355578063bf4f624214610350578063c3cda5201461034b578063d5c4489814610346578063d83b90de14610341578063d8cf24fd1461033c578063da2703e714610337578063db8d55f114610332578063dd62ed3e1461032d578063e5c27ced14610328578063f0c9daa4146103235763f1127ed81461031e57600080fd5b6125ef565b61255b565b612436565b6123de565b6123b5565b611292565b610473565b612389565b612314565b61224b565b61215c565b6120d3565b6120a7565b611af5565b6113e4565b612055565b612024565b612006565b611e94565b611e76565b611d2b565b611a14565b611c2a565b611bdd565b611b94565b611b68565b611b1e565b611a4d565b6119f6565b6119ca565b6118f1565b6118c5565b6118a7565b611846565b61174b565b6114f5565b6114d7565b611492565b611458565b61141f565b61137c565b611353565b611335565b6112eb565b6112b0565b611274565b6111e2565b611150565b610fbf565b610f10565b610e6d565b610e3e565b610dc4565b610c2e565b610bdd565b610a26565b6109fa565b61094d565b6108b1565b610869565b610761565b610697565b610613565b61052a565b610491565b600091031261046e57565b600080fd5b3461046e57600036600319011261046e576020601254604051908152f35b3461046e57600036600319011261046e576040517f00000000000000000000000000000000000000000000000000000000000000006001600160a01b03168152602090f35b919082519283825260005b848110610502575050826000602080949584010152601f8019910116010190565b6020818301810151848301820152016104e1565b9060206105279281815201906104d6565b90565b3461046e576000806003193601126106105760405190806003549061054e82610a52565b808552916020916001918281169081156105e3575060011461058b575b6105878661057b81880382610bbc565b60405191829182610516565b0390f35b9350600384527fc2575a0e9e593c00f959f8c92f12db2869c3395a3b0502d05e2516446f71f85b5b8385106105d05750505050810160200161057b826105873861056b565b80548686018401529382019381016105b3565b90508695506105879693506020925061057b94915060ff191682840152151560051b82010192933861056b565b80fd5b3461046e57602036600319011261046e5760043560005260166020526020604060002054604051908152f35b600435906001600160a01b038216820361046e57565b602435906001600160a01b038216820361046e57565b604435906001600160a01b038216820361046e57565b606435906001600160a01b038216820361046e57565b3461046e57604036600319011261046e576106b061063f565b6024353315610748576001600160a01b03821691821561072f5733600090815260016020526040902082916106f7915b9060018060a01b0316600052602052604060002090565b556040519081527f8c5be1e5ebec7d5bd14f71427d1e84f3dd0314c0f7b2291e5b200ac8c7c3b92560203392a3602060405160018152f35b604051634a1406b160e11b815260006004820152602490fd5b60405163e602df0560e01b815260006004820152602490fd5b3461046e57606036600319011261046e5761077a61063f565b602435907f00000000000000000000000000000000000000000000000000000000000000006001600160a01b031633036108575760009143835260176020526040832054818101809111610840576019541061084557438352601760205260408320918254828101809111610840577f4e3883c75cc9c752bb1db2e406a822e4a75067ae77ad9a0a4d179f2709b9e1f693556108168282612aa9565b604080519283526001600160a01b0390911660208301526044359082015280606081015b0390a180f35b6126a2565b604051630fbf0bc960e01b8152600490fd5b60405163c940439160e01b8152600490fd5b3461046e57600036600319011261046e576020600254604051908152f35b606090600319011261046e57600435906024356001600160a01b038116810361046e579060443590565b3461046e576108bf36610887565b6001600160a01b037f0000000000000000000000000000000000000000000000000000000000000000811633036108575782169283600052602080526040600020805490828203918211610840577feb57962be452e007d7fab34e9394c9ad52170e2235af8d7ca6fe3c1f3db895359461093b92849255612aa9565b604080519182526020820192909252a2005b3461046e57606036600319011261046e5761096661063f565b61096e610655565b6001600160a01b038216600090815260016020908152604080832033845290915290206044359190549260001984106109b8575b6109ac9350612b6e565b60405160018152602090f35b8284106109d4576109cf836109ac95033383612fd4565b6109a2565b604051637dc7a0d960e11b81523360048201526024810185905260448101849052606490fd5b3461046e57602036600319011261046e57600435600052601d6020526020604060002054604051908152f35b3461046e57602036600319011261046e5760043560005260176020526020604060002054604051908152f35b90600182811c92168015610a82575b6020831014610a6c57565b634e487b7160e01b600052602260045260246000fd5b91607f1691610a61565b805460009392610a9b82610a52565b91828252602093600191600181169081600014610b035750600114610ac2575b5050505050565b90939495506000929192528360002092846000945b838610610aef57505050500101903880808080610abb565b805485870183015294019385908201610ad7565b60ff19168685015250505090151560051b010191503880808080610abb565b634e487b7160e01b600052604160045260246000fd5b604081019081106001600160401b03821117610b5357604052565b610b22565b6001600160401b038111610b5357604052565b602081019081106001600160401b03821117610b5357604052565b60a081019081106001600160401b03821117610b5357604052565b60c081019081106001600160401b03821117610b5357604052565b90601f801991011681019081106001600160401b03821117610b5357604052565b3461046e57602036600319011261046e576004356000526015602052610587610c13610c1a604060002060405192838092610a8c565b0382610bbc565b6040519182916020835260208301906104d6565b3461046e57600036600319011261046e57602060405160128152f35b60405190610c5782610b38565b565b6064359060ff8216820361046e57565b359060ff8216820361046e57565b919082604091031261046e57604051610c8f81610b38565b6020808294610c9d81610c69565b84520135910152565b919082604091031261046e57604051610cbe81610b38565b6020808294803584520135910152565b81601f8201121561046e578035916020916001600160401b038411610b53578360051b9060405194610d0285840187610bbc565b8552838086019282010192831161046e578301905b828210610d25575050505090565b81358152908301908301610d17565b9190916101008184031261046e57604051906001600160401b039060c0830182811184821017610b5357604052829481358452610d7360208301610c69565b602085015260408201356040850152610d8f8160608401610c77565b6060850152610da18160a08401610ca6565b608085015260e082013592831161046e5760a092610dbf9201610cce565b910152565b3461046e57608036600319011261046e57610ddd610655565b6001600160401b0360443581811161046e57610dfd903690600401610d34565b916064359282841161046e573660238501121561046e57836004013592831161046e57366024848601011161046e576024610e3c9401916004356126e2565b005b3461046e57604036600319011261046e576020610e65610e5c61063f565b602435906128b9565b604051908152f35b3461046e5760208060031936011261046e57610eca610ef69160043560005260138152610f06604091610edc836000209360148352806000205460158452610ee38260002060168652610ed184600020549885519a8b8092610a8c565b038a610bbc565b835194858092610a8c565b0384610bbc565b81519788976080895260808901906104d6565b93870152858303908601526104d6565b9060608301520390f35b3461046e57602036600319011261046e576004356000526013602052610587610c13610c1a604060002060405192838092610a8c565b90606060031983011261046e57600435916001600160401b0360243581811161046e578260238201121561046e578060040135918211610b535760405192610f98601f8401601f191660200185610bbc565b8284526024838301011161046e578160009260246020930183860137830101529060443590565b3461046e57610fcd36610f46565b91907f00000000000000000000000000000000000000000000000000000000000000006001600160a01b03163303610857576000918083526020601360205260408420908351906001600160401b038211610b5357611036826110308554610a52565b85612973565b602090601f83116001146110bd57509161108d8287989361083a957ff175da8172765d524f43f0f439a767343c7c084079e4f6279f59392dd980212099916110b2575b508160011b916000199060031b1c19161790565b90555b806110a5846000526014602052604060002090565b55604051938493846129c9565b905087015138611079565b90601f1983166110d285600052602060002090565b9288905b8282106111385750509261083a9492600192827ff175da8172765d524f43f0f439a767343c7c084079e4f6279f59392dd98021209a9b961061111f575b5050811b019055611090565b88015160001960f88460031b161c191690553880611113565b80600185968294968c015181550195019301906110d6565b3461046e57604036600319011261046e576004356024357f00000000000000000000000000000000000000000000000000000000000000006001600160a01b0316330361085757817f671fb6337d29eb7a4a8bfef75e8ac868bb4b26addbc61a9b7fb4d2432ce2c80492601055816011556111dd6040519283928360209093929193604081019481520152565b0390a1005b3461046e57600036600319011261046e576111fc4361300e565b65ffffffffffff8061120d4361300e565b169116036112625761058760405161122481610b38565b601d81527f6d6f64653d626c6f636b6e756d6265722666726f6d3d64656661756c7400000060208201526040519182916020835260208301906104d6565b6040516301bfc1c560e61b8152600490fd5b3461046e57600036600319011261046e576020601054604051908152f35b3461046e57600036600319011261046e576020600d54604051908152f35b3461046e57602036600319011261046e5760206001600160a01b03806112d461063f565b166000526008825260406000205416604051908152f35b3461046e57602036600319011261046e57610e3c61130761063f565b336000908152601b6020526040902080546001600160a01b0319166001600160a01b03831617905533612f51565b3461046e57600036600319011261046e576020600b54604051908152f35b3461046e57600036600319011261046e57601954601a5460408051928352602083019190915290f35b3461046e57602036600319011261046e576001600160a01b0361139d61063f565b16600052600960205260406000205463ffffffff908181116113c55760209160405191168152f35b604490604051906306dfcc6560e41b8252602060048301526024820152fd5b3461046e57602036600319011261046e5760206001600160a01b038061140861063f565b16600052601b825260406000205416604051908152f35b3461046e57602036600319011261046e576020610e6561143d61063f565b6001600160a01b031660009081526020819052604090205490565b3461046e57602036600319011261046e576001600160a01b0361147961063f565b1660005260076020526020604060002054604051908152f35b3461046e57600036600319011261046e576040517f00000000000000000000000000000000000000000000000000000000000000006001600160a01b03168152602090f35b3461046e57600036600319011261046e576020601a54604051908152f35b3461046e57608036600319011261046e5760043561151161066b565b9061151a610681565b916115488261153f611533600c5460018060a01b031690565b6001600160a01b031690565b30903390612ca8565b600c5461155f90611533906001600160a01b031681565b60405163095ea7b360e01b8082527f00000000000000000000000000000000000000000000000000000000000000006001600160a01b0316600483018190526024830186905292956020929091908381806044810103816000809c5af1801561170c5761172e575b50600b54600c5490949088906001600160a01b0316823b1561172a57604051631c0879c160e21b815260048101979097526001600160a01b03166024870152604486018890529496948760648183855af191821561170c57611670978593611711575b50600c5461164290611533906001600160a01b031681565b6040519182526001600160a01b039092166004820152600060248201529687919082908a9082906044820190565b03925af191821561170c577f2f9bf98f6da8b25d52c6b60895c2fe0ffefeb722593281fcea2d708c1bf277f79561083a936116de575b505060408051938452336020850152602435908401526001600160a01b039384166060840152909216608082015290819060a0820190565b816116fd92903d10611705575b6116f58183610bbc565b8101906129eb565b5038806116a6565b503d6116eb565b612872565b8061171e61172492610b58565b80610463565b3861162a565b5080fd5b61174490843d8611611705576116f58183610bbc565b50386115c7565b3461046e57600080600319360112610610576117e99061178a7f0000000000000000000000000000000000000000000000000000000000000000613235565b906117b47f0000000000000000000000000000000000000000000000000000000000000000613336565b90604051916117c283610b6b565b8183526117f7602091604051968796600f60f81b885260e0602089015260e08801906104d6565b9086820360408801526104d6565b904660608601523060808601528260a086015284820360c0860152602080855193848152019401925b82811061182f57505050500390f35b835185528695509381019392810192600101611820565b3461046e57602036600319011261046e57600435600090808252601e602052604082205461189557600019430190438211610840578252601e6020526040822055601f60205242604082205580f35b604051631f8ea03560e21b8152600490fd5b3461046e57600036600319011261046e576020600f54604051908152f35b3461046e57602036600319011261046e57600435600052601e6020526020604060002054604051908152f35b3461046e57602036600319011261046e5761190d600435612c67565b600a5490600082916005841161196e575b611928935061316b565b806119455750602060005b6040516001600160d01b039091168152f35b6119506020916126d3565b600a600052600080516020613c24833981519152015460301c611933565b919261197981613040565b81039081116108405761192893600a60005265ffffffffffff8083600080516020613c24833981519152015416908516106000146119b857509161191e565b9291506119c4906126b8565b9061191e565b3461046e57600036600319011261046e5760206119e64361300e565b65ffffffffffff60405191168152f35b3461046e57600036600319011261046e576020601954604051908152f35b3461046e57602036600319011261046e576001600160a01b03611a3561063f565b16600052602080526020604060002054604051908152f35b3461046e5760008060031936011261061057604051908060045490611a7182610a52565b808552916020916001918281169081156105e35750600114611a9d576105878661057b81880382610bbc565b9350600484527f8a35acfbc15ff81a39ae7d344fd709f28e8600b4aa8c65c6b64bfe7fe36bd19b5b838510611ae25750505050810160200161057b826105873861056b565b8054868601840152938201938101611ac5565b3461046e57600036600319011261046e57600c546040516001600160a01b039091168152602090f35b3461046e57602036600319011261046e5760043560005260176020526040600020546018602052604060002054906105876040519283928360209093929193604081019481520152565b3461046e57602036600319011261046e57600435600052601f6020526020604060002054604051908152f35b3461046e57602036600319011261046e576001600160a01b03611bb561063f565b166000526009602052602060018060d01b03611bd46040600020612d76565b16604051908152f35b3461046e57602036600319011261046e57600435600052601e6020526060604060002054601d602052604060002054601f6020526040600020549060405192835260208301526040820152f35b3461046e57611c3836610887565b6001600160a01b03929091907f000000000000000000000000000000000000000000000000000000000000000084163303610857576000934385526018602052604085205482810180911161084057601a5410611d19574385526018602052604085208054908382018092116108405755611cb38284612da2565b82168452602080526040842080549382850394851161084057939055604080519182526001600160a01b039092166020820152908101919091527fe1b6e34006e9871307436c226f232f9c5e7690c1d2c4f4adda4f607a75a9beca90806060810161083a565b6040516326a753e760e11b8152600490fd5b3461046e57602036600319011261046e57336000908152601b60205260409020600435906001600160a01b0390611d6a905b546001600160a01b031690565b16611e585733905b611d94611d8d836106e084600052601c602052604060002090565b5460ff1690565b611e4657611dac81600052601e602052604060002090565b5415611e3457611dd0611dc982600052601e602052604060002090565b54836128b9565b918215611e225781611e06611df9611e16936106e0611e1e96600052601c602052604060002090565b805460ff19166001179055565b600052601d602052604060002090565b9182546126c6565b9055005b604051631f05dadd60e21b8152600490fd5b60405163b4ffabe960e01b8152600490fd5b604051637c9a1cf960e01b8152600490fd5b336000908152601b60205260409020611e7090611d5d565b90611d72565b3461046e57600036600319011261046e576020600e54604051908152f35b3461046e57611ea236610f46565b91907f00000000000000000000000000000000000000000000000000000000000000006001600160a01b03163303610857576000918083526020601560205260408420908351906001600160401b038211610b5357611f05826110308554610a52565b602090601f8311600114611f73575091611f5b8287989361083a957f1d2821d9ebe3829cb9741e9914b8a527067937dc33e12f9fa510270d2e92ffbc99916110b257508160011b916000199060031b1c19161790565b90555b806110a5846000526016602052604060002090565b90601f198316611f8885600052602060002090565b9288905b828210611fee5750509261083a9492600192827f1d2821d9ebe3829cb9741e9914b8a527067937dc33e12f9fa510270d2e92ffbc9a9b9610611fd5575b5050811b019055611f5e565b88015160001960f88460031b161c191690553880611fc9565b80600185968294968c01518155019501930190611f8c565b3461046e57600036600319011261046e576020601154604051908152f35b3461046e57604036600319011261046e5761204a61204061063f565b6024359033612b6e565b602060405160018152f35b3461046e57604036600319011261046e57602060ff61209b612075610655565b600435600052601c845260406000209060018060a01b0316600052602052604060002090565b54166040519015158152f35b3461046e57602036600319011261046e5760043560005260186020526020604060002054604051908152f35b3461046e57604036600319011261046e57600435600090338252816020526121018160408420541015612a03565b338252602080526040822080549082820180921161084057556121248133612da2565b60408051918252602435602083015233917f7c4bb84b7dd5271ea124a9260e902520592997b8dfd4182b7f9a1b69191b15309190a280f35b3461046e5761216a36610887565b6001600160a01b03929091907f000000000000000000000000000000000000000000000000000000000000000084163303610857576000934385526018602052604085205482810180911161084057601a5410611d195743855260186020526040852080549083820180921161084057556121e58284612da2565b82168452602080526040842080549382850394851161084057939055604080519182526001600160a01b039092166020820152908101919091527fa10d1f73f122010afef6448b3249b096ebd975bd1e4acb74ae71dcb42b76af0790806060810161083a565b3461046e5760c036600319011261046e5761226461063f565b60443590602435612273610c59565b8342116122fb576122ef610e3c946122f6926040519060208201927fe48329057bfd03d55e49b547132e39cffd9c1820ad7b9d4c5307691425d15adf845260018060a01b03881660408401528660608401526080830152608082526122d782610b86565b6122ea60a4359360843593519020612ebb565b612ee1565b9182612ef9565b612f51565b604051632341d78760e11b815260048101859052602490fd5b3461046e57602036600319011261046e576004357f00000000000000000000000000000000000000000000000000000000000000006001600160a01b03163303610857576020817fdf34c43531609ffbe660deb5fa18df5e7f0c358bfdb3d5ff0518fd1dfc38cc8892601255604051908152a1005b3461046e57602036600319011261046e5760043560005260146020526020604060002054604051908152f35b3461046e57600036600319011261046e57600e54600f5460408051928352602083019190915290f35b3461046e57604036600319011261046e57602061242d6123fc61063f565b612404610655565b6001600160a01b0391821660009081526001855260408082209290931681526020919091522090565b54604051908152f35b3461046e57604036600319011261046e576004356024356001600160401b03811161046e57612469903690600401610d34565b9061247e81600052601d602052604060002090565b5461249861249160105460025490612a46565b6064900490565b1015612549576124bf6124b582600052601f602052604060002090565b54601154906126c6565b4211612538577f00000000000000000000000000000000000000000000000000000000000000006001600160a01b031691823b1561046e5761251b92600092836040518096819582946373f9e8b560e01b845260048401612a79565b03925af1801561170c5761252b57005b8061171e610e3c92610b58565b60405162796d2760e21b8152600490fd5b6040516359fa4a9360e01b8152600490fd5b3461046e57604036600319011261046e576004356024359060ff821680920361046e57600091338352826020526125988260408520541015612a03565b338352602080526040832080549083820180921161084057556125bb8233612da2565b60405191825260208201527fdbcba7bbdb09b9ef2bdc49e6752ea786fab4964cb5a62197ad2a0fb4dd2fbe1160403392a280f35b3461046e57604036600319011261046e5761260861063f565b6024359063ffffffff8216820361046e576105879161265891612629612a90565b50612632612a90565b506001600160a01b03166000908152600960205260409020612652612a90565b50613792565b506040519061266682610b38565b5465ffffffffffff811680835260309190911c60209283019081526040805192835290516001600160d01b031692820192909252918291820190565b634e487b7160e01b600052601160045260246000fd5b906001820180921161084057565b9190820180921161084057565b60001981019190821161084057565b6001600160a01b0394919390929091907f00000000000000000000000000000000000000000000000000000000000000008616330361085757600c548616907f00000000000000000000000000000000000000000000000000000000000000008716803b1561046e5761278a97600080946040519a8b958694859363be3fe42360e01b855260048501528c1660248401528a60448401526080606484015260848301906127e5565b03925af191821561170c577fb2a357ab3b01fa950ded727363089604288d9124858df5d38cfbb2933d011361956127cd936127d2575b506040519485948561287e565b0390a1565b8061171e6127df92610b58565b386127c0565b9060a0906101009261012084830192825181526020948360ff878096015116858401526040810151604084015284606082015160ff815116606086015201516080840152846080820151805184860152015160c084015201519560e082015285518094520193019160005b82811061285e575050505090565b835185529381019392810192600101612850565b6040513d6000823e3d90fd5b92849260809592855260018060a01b0316602085015260606040850152816060850152848401376000828201840152601f01601f1916010190565b6001600160a01b0316600090815260096020526040812090916128db90612c67565b81549083829160058411612924575b6128f59350846131d4565b806129095750505b6001600160d01b031690565b91612916602092936126d3565b92815220015460301c6128fd565b919261292f81613040565b8103908111610840576128f59385875265ffffffffffff808360208a20015416908516106000146129615750916128ea565b92915061296d906126b8565b906128ea565b90601f811161298157505050565b6000916000526020600020906020601f850160051c830194106129bf575b601f0160051c01915b8281106129b457505050565b8181556001016129a8565b909250829061299f565b9392916129e69060409286526060602087015260608601906104d6565b930152565b9081602091031261046e5751801515810361046e5790565b15612a0a57565b60405162461bcd60e51b8152602060048201526014602482015273496e73756666696369656e742062616c616e636560601b6044820152606490fd5b8181029291811591840414171561084057565b8115612a63570490565b634e487b7160e01b600052601260045260246000fd5b6040906105279392815281602082015201906127e5565b60405190612a9d82610b38565b60006020838281520152565b91906001600160a01b0383168015612b5557600254828101809111610840576002556001600160a01b038416600090815260208181526040808320805486019055518481527fddf252ad1be2c89b69c2b068fc378daa952ba7f163c4a11628f55a4df523b3ef9190a3600254926001600160d01b038411612b2f57610c579293506137c0565b604051630e58ae9360e11b8152600481018590526001600160d01b036024820152604490fd5b60405163ec442f0560e01b815260006004820152602490fd5b6001600160a01b0380821694939291908515612c4e5782168015612b55576001600160a01b03821660009081526020819052604090205495848710612c1f5784610c57969703612bd08460018060a01b03166000526000602052604060002090565b556001600160a01b0384166000908152602081815260409182902080548801905590518681527fddf252ad1be2c89b69c2b068fc378daa952ba7f163c4a11628f55a4df523b3ef9190a361388d565b60405163391434e360e21b81526001600160a01b03841660048201526024810188905260448101869052606490fd5b604051634b637e8f60e11b815260006004820152602490fd5b65ffffffffffff612c774361300e565b1680821015612c8a57506105279061300e565b6044925060405191637669fc0f60e11b835260048301526024820152fd5b9260209160009160405190848201926323b872dd60e01b845260018060a01b0396878092166024850152166044830152606482015260648152612cea81610b86565b519082865af115612872576000513d612d2657508082163b155b612d0c575050565b604051635274afe760e01b81529116600482015260249150fd5b60011415612d04565b600a5480612d3d5750600090565b8060001981011161084057600a6000527fc65a7bb8d6351c1cf70c95a316cc6a92839c986682d98bc35f958f4883f9d2a7015460301c90565b805480612d84575050600090565b60001991818381011161084057600052602060002001015460301c90565b6001600160a01b0380821692918315612c4e576001600160a01b038116600090815260208190526040902054838110612e8c5790612df88460209493039160018060a01b03166000526000602052604060002090565b558260025403600255604051838152847fddf252ad1be2c89b69c2b068fc378daa952ba7f163c4a11628f55a4df523b3ef6000948593a3612e388361395e565b93612e424361300e565b6001600160d01b03958680612e55612d2f565b169116900395861161084057610c5795612e6e91613a7e565b50508252600860205260408181842054169280805220541690613641565b60405163391434e360e21b81526001600160a01b03929092166004830152602482015260448101839052606490fd5b604290612ec66133f6565b906040519161190160f01b8352600283015260228201522090565b916105279391612ef093613510565b909291926135b4565b6001600160a01b038116600090815260076020526040902080546001810190915591829003612f26575050565b6040516301d4b62360e61b81526001600160a01b039190911660048201526024810191909152604490fd5b6001600160a01b03818116600081815260086020526040812080548685166001600160a01b031982168117909255610c5796941694612fce9390928691907f3134e8a2e6d97e929a7e54011ea5485d7d196dd5f0ba4d4ef95803e8e3fc257f9080a46001600160a01b031660009081526020819052604090205490565b91613641565b906001600160a01b03808316156107485781161561072f576106e061300b9260018060a01b03166000526001602052604060002090565b55565b65ffffffffffff90818111613021571690565b604490604051906306dfcc6560e41b8252603060048301526024820152fd5b600181111561052757600181600160801b811015613159575b6131016130f76130ed6130e36130d96130cf61310d97600488600160401b6131089a101561314c575b64010000000081101561313f575b62010000811015613132575b610100811015613126575b601081101561311a575b1015613112575b60030260011c6130c8818b612a59565b0160011c90565b6130c8818a612a59565b6130c88189612a59565b6130c88188612a59565b6130c88187612a59565b6130c88186612a59565b8093612a59565b821190565b900390565b60011b6130b8565b811c9160021b916130b1565b60081c91811b916130a7565b60101c9160081b9161309c565b60201c9160101b91613090565b60401c9160201b91613082565b50600160401b9050608082901c613059565b905b82811061317957505090565b90918082169080831860011c820180921161084057600a60005265ffffffffffff8083600080516020613c24833981519152015416908516106000146131c25750915b9061316d565b9291506131ce906126b8565b906131bc565b91905b8382106131e45750505090565b9091928083169080841860011c82018092116108405760008581526020902082015465ffffffffffff90811690841610156132235750925b91906131d7565b93925061322f906126b8565b9161321c565b60ff81146132735760ff811690601f8211613261576040519161325783610b38565b8252602082015290565b604051632cd44ac360e21b8152600490fd5b5060405160055481600061328683610a52565b8083529260209060019081811690811561331257506001146132b1575b505061052792500382610bbc565b91509260056000527f036b6384b5eca791c62761152d0c79bb0604c104a5fb6f4eb0703f3154bb3db0936000925b8284106132fa575061052794505050810160200138806132a3565b855487850183015294850194869450928101926132df565b9150506020925061052794915060ff191682840152151560051b82010138806132a3565b60ff81146133585760ff811690601f8211613261576040519161325783610b38565b5060405160065481600061336b83610a52565b80835292602090600190818116908115613312575060011461339557505061052792500382610bbc565b91509260066000527ff652222313e28459528d920b65115c16c04f3efc82aaedc97be59f3f377c0d3f936000925b8284106133de575061052794505050810160200138806132a3565b855487850183015294850194869450928101926133c3565b307f00000000000000000000000000000000000000000000000000000000000000006001600160a01b031614806134e7575b15613451577f000000000000000000000000000000000000000000000000000000000000000090565b60405160208101907f8b73c3c69bb8fe3d512ecc4cf759cc79239f7b179b0ffacaa9a75d522b39400f82527f000000000000000000000000000000000000000000000000000000000000000060408201527f000000000000000000000000000000000000000000000000000000000000000060608201524660808201523060a082015260a081526134e181610ba1565b51902090565b507f00000000000000000000000000000000000000000000000000000000000000004614613428565b91907f7fffffffffffffffffffffffffffffff5d576e7357a4501ddfe92f46681b20a0841161358857926020929160ff608095604051948552168484015260408301526060820152600092839182805260015afa1561170c5780516001600160a01b0381161561357f57918190565b50809160019190565b50505060009160039190565b6004111561359e57565b634e487b7160e01b600052602160045260246000fd5b6135bd81613594565b806135c6575050565b6135cf81613594565b600181036135e95760405163f645eedf60e01b8152600490fd5b6135f281613594565b600281036136135760405163fce698f760e01b815260048101839052602490fd5b8061361f600392613594565b146136275750565b6040516335e2f38360e21b81526004810191909152602490fd5b6001600160a01b03808316939291908116908185141580613789575b613668575050505050565b816136ed575b50508261367d575b8080610abb565b6001600160a01b031660009081526009602052604090207fdec2bacdd2f05b59de34da9b523dff8be42e5e38e818c82fdb0bae774387a724916136ca916136c4909161395e565b90613991565b604080516001600160d01b039384168152919092166020820152a2388080613676565b6001600160a01b0316600090815260096020526040902061370d8461395e565b6137164361300e565b6001600160d01b0391828061372a86612d76565b169116900392828411610840577fdec2bacdd2f05b59de34da9b523dff8be42e5e38e818c82fdb0bae774387a7249361377f9261376692613b67565b6040805192851683529316602082015291829190820190565b0390a2388061366e565b5083151561365d565b80548210156137aa5760005260206000200190600090565b634e487b7160e01b600052603260045260246000fd5b906137ca8161395e565b916137d44361300e565b6001600160d01b039384806137e7612d2f565b16911601848111610840576137fb91613a7e565b50506001600160a01b03908116908115613850575b60086020527f5eff886ea0ce6ca488a3d6e336d6c0f75f46d19b42c06ce5ee98e42c96d256c7546000928352604090922054610c57945081169116613641565b6138598361395e565b6138624361300e565b90858061386d612d2f565b169116900394851161084057610c579461388691613a7e565b5050613810565b6001600160a01b03908116929181908415613919575b169081156138d1575b610c579360005260086020528060406000205416916000526040600020541690613641565b6138da8361395e565b936138e44361300e565b6001600160d01b039586806138f7612d2f565b169116900395861161084057610c579561391091613a7e565b505093506138ac565b90506139248361395e565b9061392e4361300e565b6001600160d01b03928380613941612d2f565b1691160192831161084057839261395791613a7e565b50506138a3565b6001600160d01b0390818111613972571690565b604490604051906306dfcc6560e41b825260d060048301526024820152fd5b9061399b4361300e565b6001600160d01b039182806139af86612d76565b16911601918211610840576139c392613b67565b9091565b600a5490600160401b821015610b53576001820180600a558210156137aa57600a600052805160209091015160301b65ffffffffffff191665ffffffffffff9190911617600080516020613c2483398151915290910155565b8054600160401b811015610b5357613a3d91600182018155613792565b613a6857815160209092015160301b65ffffffffffff191665ffffffffffff92909216919091179055565b634e487b7160e01b600052600060045260246000fd5b600a549192918015613b3d57613a96613aae916126d3565b600a600052600080516020613c248339815191520190565b9081549165ffffffffffff90818416918316808311613b2b57869203613af357613aec92509065ffffffffffff82549181199060301b169116179055565b60301c9190565b5050613b2690613b12613b04610c4a565b65ffffffffffff9092168252565b6001600160d01b03851660208201526139c7565b613aec565b604051632520601d60e01b8152600490fd5b50613b6190613b4d613b04610c4a565b6001600160d01b03841660208201526139c7565b60009190565b80549293928015613bfe57613b7e613b8b916126d3565b8260005260206000200190565b9182549265ffffffffffff91828516928116808411613b2b57879303613bca5750613aec92509065ffffffffffff82549181199060301b169116179055565b915050613b2691613bea613bdc610c4a565b65ffffffffffff9093168352565b6001600160d01b0386166020830152613a20565b5090613b6191613c0f613bdc610c4a565b6001600160d01b0385166020830152613a2056fec65a7bb8d6351c1cf70c95a316cc6a92839c986682d98bc35f958f4883f9d2a8a264697066735822122009c2cd226557a45a757f8d4e8d4fa93d5fc96c1785be9d952dfb9f00c73f0f3b64736f6c63430008180033",
  "linkReferences": {},
  "deployedLinkReferences": {}
}